:100000000C942A000C9434000C9434000C943400AA
:100010000C9434000C9434000C9434000C94340090
:100020000C9434000C9434000C9434000C94340080
:100030000C9434000C9434000C9434000C94340070
:100040000C9434000C9434000C9434000C94340060
:100050000C94340011241FBECFE5D8E0DEBFCDBF25
:100060000E9436000C9455000C9400000E94480039
:1000700080E0C1E0C80F0E9451002FEF81EE94E0B4
:10008000215080409040E1F700C000008C2FF1CF5C
:1000900087E689B98AB188618AB98AB186608AB9E6
:0E00A00008958CB95E9BFECF0895F894FFCFB3
:00000001FF
