:100000000C942A000C9434000C9434000C943400AA
:100010000C9434000C9434000C9434000C94340090
:100020000C9434000C9434000C9434000C94340080
:100030000C9434000C9434000C9434000C94340070
:100040000C9434000C9434000C9434000C94340060
:100050000C94340011241FBECFE5D8E0DEBFCDBF25
:100060000E945A000C9475000C9400008CE080B93A
:10007000089584EA86BF06B607FEFDCF0895880F6F
:1000800083B9613021F483B1816083B903C083B146
:100090008E7F83B984E886BF06B607FEFDCF08953C
:1000A00083B984E886BF06B607FEFDCF089584E9CC
:1000B00086BF08950E943600C0E00E94390060E0CB
:1000C0008FE00E943F00D1E0DC0F8C2F0E94500097
:1000D0000E9457002FEF80E792E02150804090402F
:0E00E000E1F700C00000CD2FE8CFF894FFCF6D
:00000001FF
