S015000053656374696F6E5F365F4144432E737265637E
S11300000C942A000C9434000C9434000C943400A6
S11300100C9434000C9434000C9434000C9434008C
S11300200C9434000C9434000C9434000C9434007C
S11300300C9434000C9434000C9434000C9434006C
S11300400C9434000C9434000C9434000C9434005C
S11300500C94340011241FBECFE5D8E0DEBFCDBF21
S11300600E94BD010C94F8010C94000087B18064D7
S113007087B986B1876886B9089597B1892B80645A
S113008087B986B1806486B93699FECF84B195B1BB
S113009008959BB3977F9BBB882324F09BB39F77E2
S11300A09BBB03C09BB390689BBB86FD04C09BB302
S11300B09F7B9BBB03C09BB390649BBB85FD04C02B
S11300C09BB39F7D9BBB03C09BB390629BBB84FD92
S11300D004C09BB39F7E9BBB03C09BB390619BBB3F
S11300E09BB394609BBBEFE9FFE03197F1F700C04D
S11300F000009BB39B7F9BBBEFE9FFE03197F1F7D7
S113010000C0000083FD04C09BB39F779BBB03C06A
S11301109BB390689BBB82FD04C09BB39F7B9BBB3E
S113012003C09BB390649BBB81FD04C09BB39F7DC4
S11301309BBB03C09BB390629BBB80FD04C08BB38D
S11301408F7E8BBB03C08BB380618BBB8BB384600E
S11301508BBB8FE99FE00197F1F700C000008BB3E0
S11301608B7F8BBBEFE9FFE03197F1F700C0000014
S113017008958AB38C6F8ABB8BB383708BBB83E087
S11301800E9449008FE79EE30197F1F700C0000049
S113019083E00E9449008FE79EE30197F1F700C0D6
S11301A0000083E00E9449008FE79EE30197F1F786
S11301B000C0000082E00E94490088E20E944900D9
S11301C088E00E94490081E00E94490086E00E9484
S11301D0490081E00E9449008CE00E9449009FEFA1
S11301E029EF80E0915020408040E1F700C00000FA
S11301F008959BB398609BBB882324F09BB39F779F
S11302009BBB03C09BB390689BBB86FD04C09BB3A0
S11302109F7B9BBB03C09BB390649BBB85FD04C0C9
S11302209BB39F7D9BBB03C09BB390629BBB84FD30
S113023004C09BB39F7E9BBB03C09BB390619BBBDD
S11302409BB394609BBBEFE9FFE03197F1F700C0EB
S113025000009BB39B7F9BBBEFE9FFE03197F1F775
S113026000C0000083FD04C09BB39F779BBB03C009
S11302709BB390689BBB82FD04C09BB39F7B9BBBDD
S113028003C09BB390649BBB81FD04C09BB39F7D63
S11302909BBB03C09BB390629BBB80FD04C08BB32C
S11302A08F7E8BBB03C08BB380618BBB8BB38460AD
S11302B08BBB8FE99FE00197F1F700C000008BB37F
S11302C08B7F8BBBEFE9FFE03197F1F700C00000B3
S11302D00895CF92DF92EF92FF921F93CF93DF9313
S11302E0CDB7DEB72A970FB6F894DEBF0FBECDBFE9
S11302F06B017C01672B682B692B19F480E30E9446
S1130300F90010E017C0C701B6012AE030E040E070
S113031050E00E94D601E1E0F0E0EC0FFD1FE10F98
S1130320F11D17FDFA95605D6083C22ED32EE42E75
S1130330F52E1F5FC114D104E104F10421F711501B
S11303400CC0E1E0F0E0EC0FFD1FE10FF11D17FD23
S1130350FA9580810E94F9001150112394F72A968E
S11303600FB6F894DEBF0FBECDBFDF91CF911F91C2
S1130370FF90EF90DF90CF9008950E9436000E9486
S1130380B90081E00E94490080E00E943D00BC0168
S113039080E090E00E9469012FEF83ED90E321500B
S11303A080409040E1F700C00000EBCFA1E21A2E9C
S11303B0AA1BBB1BFD010DC0AA1FBB1FEE1FFF1F05
S11303C0A217B307E407F50720F0A21BB30BE40B55
S11303D0F50B661F771F881F991F1A9469F760959C
S11303E07095809590959B01AC01BD01CF01089556
S10703F0F894FFCFAB
S9030000FC
