:100000000C942A000C9445000C9434000C94340099
:100010000C9434000C9434000C9434000C94340090
:100020000C9434000C9434000C9434000C94340080
:100030000C9434000C9434000C9434000C94340070
:100040000C9434000C9434000C9434000C94340060
:100050000C94340011241FBECFE5D8E0DEBFCDBF25
:100060000E9436000C9457000C94000087B3816006
:1000700087BB84E082BB85B7836085BF8BB7806414
:100080008BBF8FB780688FBFFFCF1F920F920FB6C5
:100090000F9211248F939F9398B381E0892788BB97
:1000A0009F918F910F900FBE0F901F901895F8940D
:0200B000FFCF80
:00000001FF
