S021000044494F5F73656374696F6E5F315F696E746572666163696E672E737265635A
S11300000C942A000C9434000C9434000C943400A6
S11300100C9434000C9434000C9434000C9434008C
S11300200C9434000C9434000C9434000C9434007C
S11300300C9434000C9434000C9434000C9434006C
S11300400C9434000C9434000C9434000C9434005C
S11300500C94340011241FBECFE5D8E0DEBFCDBF21
S11300600E9436000C9446000C94000087B3816013
S113007087BB88B3826088BBB19B04C088B38E7F82
S113008088BBFACF88B3816088BBF6CFF894FFCFE2
S9030000FC
