:100000000C942A000C9434000C9434000C943400AA
:100010000C9434000C9434000C9434000C94340090
:100020000C9434000C9434000C9434000C94340080
:100030000C9434000C9434000C9434000C94340070
:100040000C9434000C9434000C9434000C94340060
:100050000C94340011241FBECFE5D8E0DEBFCDBF25
:100060000E9436000C94D7000C9400000E944300BC
:10007000D0E0C0E004C08D2F0E944D00CF5FC5309E
:10008000D0F3DF5FF6CF84B38F6384BB85B3806129
:1000900085BB85B3806285BB08959DEC899F912DBA
:1000A0001124969596959695990F292F220F220F38
:1000B000920F282F291B922F25B3206125BB25B332
:1000C0002F7D25BB90FD04C025B32E7F25BB03C02B
:1000D00025B3216025BB91FD04C025B32D7F25BB31
:1000E00003C025B3226025BB92FD04C025B32B7F3E
:1000F00025BB03C025B3246025BB93FD04C095B385
:10010000977F95BB03C095B3986095BB3FEF90E791
:1001100022E0315090402040E1F700C000009DEC0B
:10012000899F812D1124869586958695899F912D8D
:100130001124969596959695990F292F220F220FA7
:10014000920F891B982F85B38F7E85BB85B3806204
:1001500085BB90FD04C085B38E7F85BB03C085B38E
:10016000816085BB91FD04C085B38D7F85BB03C0D5
:1001700085B3826085BB92FD04C085B38B7F85BB50
:1001800003C085B3846085BB93FD04C085B3877FBE
:1001900085BB03C085B3886085BB3FEF80E792E0F5
:1001A000315080409040E1F700C000000895F8947D
:0201B000FFCF7F
:00000001FF
