:100000000C942A000C943F000C943F000C943F0089
:100010000C943F000C943F000C943F000C943F0064
:100020000C943F000C943F000C943F000C943F0054
:100030000C943F000C943F000C943F000C943F0044
:100040000C943F000C943F000C943F000C943F0034
:100050000C943F0011241FBECFE5D8E0DEBFCDBF1A
:1000600010E0A0E6B0E0EAEDF3E002C005900D92EA
:10007000A037B107D9F70E94DB010C94EB010C9477
:1000800000008FE081BB8FEF82BB0895E0E06EC07F
:10009000E13099F028F0E230E9F0E33041F133C08B
:1000A00082B38E7F82BB82B3826082BB82B3846064
:1000B00082BB82B3886082BB26C082B3816082BB70
:1000C00082B38D7F82BB82B3846082BB82B388603F
:1000D00082BB19C082B3816082BB82B3826082BB63
:1000E00082B38B7F82BB82B3886082BB0CC082B339
:1000F000816082BB82B3826082BB82B3846082BB38
:1001000082B3877F82BB849909C0F0E0EE0FFF1FA6
:10011000EE0FFF1FE05AFF4F80810895859909C0B7
:10012000F0E0EE0FFF1FEE0FFF1FEF59FF4F808132
:100130000895869909C0F0E0EE0FFF1FEE0FFF1F34
:10014000EE59FF4F80810895879909C0F0E0EE0FC6
:10015000FF1FEE0FFF1FED59FF4F808108958FE9BC
:100160009FE00197F1F700C00000EF5FE43008F472
:100170008FCF8FEF08959BB3977F9BBB882324F08D
:100180009BB39F779BBB03C09BB390689BBB86FDD3
:1001900004C09BB39F7B9BBB03C09BB390649BBB82
:1001A00085FD04C09BB39F7D9BBB03C09BB3906246
:1001B0009BBB84FD04C09BB39F7E9BBB03C09BB3D2
:1001C00090619BBB9BB394609BBBEFE9FFE03197D1
:1001D000F1F700C000009BB39B7F9BBBEFE9FFE002
:1001E0003197F1F700C0000083FD04C09BB39F77F7
:1001F0009BBB03C09BB390689BBB82FD04C09BB3B9
:100200009F7B9BBB03C09BB390649BBB81FD04C0E1
:100210009BB39F7D9BBB03C09BB390629BBB80FD48
:1002200004C08BB38F7E8BBB03C08BB380618BBB51
:100230008BB384608BBB8FE99FE00197F1F700C01F
:1002400000008BB38B7F8BBBEFE9FFE03197F1F7B9
:1002500000C0000008958AB38C6F8ABB8BB3837093
:100260008BBB83E00E94BB008FE79EE30197F1F711
:1002700000C0000083E00E94BB008FE79EE301976F
:10028000F1F700C0000083E00E94BB008FE79EE30F
:100290000197F1F700C0000082E00E94BB0088E2F5
:1002A0000E94BB0088E00E94BB0081E00E94BB006E
:1002B00086E00E94BB0081E00E94BB008CE00E94AF
:1002C000BB009FEF29EF80E0915020408040E1F794
:1002D00000C0000008959BB398609BBB882324F066
:1002E0009BB39F779BBB03C09BB390689BBB86FD72
:1002F00004C09BB39F7B9BBB03C09BB390649BBB21
:1003000085FD04C09BB39F7D9BBB03C09BB39062E4
:100310009BBB84FD04C09BB39F7E9BBB03C09BB370
:1003200090619BBB9BB394609BBBEFE9FFE031976F
:10033000F1F700C000009BB39B7F9BBBEFE9FFE0A0
:100340003197F1F700C0000083FD04C09BB39F7795
:100350009BBB03C09BB390689BBB82FD04C09BB357
:100360009F7B9BBB03C09BB390649BBB81FD04C080
:100370009BB39F7D9BBB03C09BB390629BBB80FDE7
:1003800004C08BB38F7E8BBB03C08BB380618BBBF0
:100390008BB384608BBB8FE99FE00197F1F700C0BE
:1003A00000008BB38B7F8BBBEFE9FFE03197F1F758
:1003B00000C0000008950E942B010E9441000E948D
:1003C0004600C82F8F3FD9F381E00E94BB008C2FDD
:0A03D0000E946B01F4CFF894FFCFF8
:1003DA003738392F3435362A3132332D41303D2BD7
:00000001FF
