S015000053656374696F6E5F375F5350492E7372656359
S11300000C942A000C9434000C9434000C943400A6
S11300100C9434000C9434000C9434000C9434008C
S11300200C9434000C9434000C9434000C9434007C
S11300300C9434000C9434000C9434000C9434006C
S11300400C9434000C9434000C9434000C9434005C
S11300500C94340011241FBECFE5D8E0DEBFCDBF21
S11300600E9436000C945F000C9400000E94510022
S11300702FEF81EE94E0215080409040E1F700C0E2
S1130080000080E0C1E0C80F0E945B002FEF81EE0A
S113009094E0215080409040E1F700C000008C2F94
S11300A0F1CF87B3806B87BB8DB180618DB98DB182
S11300B080648DB908958FB9779BFECF0895F89425
S10500C0FFCF6C
S9030000FC
