:100000000C942A000C9434000C9434000C943400AA
:100010000C9434000C9434000C9434000C94340090
:100020000C9434000C9434000C9434000C94340080
:100030000C9434000C9434000C9434000C94340070
:100040000C9434000C9434000C9434000C94340060
:100050000C94340011241FBECFE5D8E0DEBFCDBF25
:100060000E94C3010C94FB010C940000880F82B91C
:1000700082B1816082B9089584EC86BF06B607FE1E
:10008000FDCF81B1803611F481E0089580E00895BC
:1000900084EC86BF06B607FEFDCF83B108959BB3FF
:1000A000977F9BBB882324F09BB39F779BBB03C0A8
:1000B0009BB390689BBB86FD04C09BB39F7B9BBB9F
:1000C00003C09BB390649BBB85FD04C09BB39F7D25
:1000D0009BBB03C09BB390629BBB84FD04C09BB3DE
:1000E0009F7E9BBB03C09BB390619BBB9BB3946003
:1000F0009BBBEFE9FFE03197F1F700C000009BB335
:100100009B7F9BBBEFE9FFE03197F1F700C0000058
:1001100083FD04C09BB39F779BBB03C09BB39068D8
:100120009BBB82FD04C09BB39F7B9BBB03C09BB367
:1001300090649BBB81FD04C09BB39F7D9BBB03C0B0
:100140009BB390629BBB80FD04C08BB38F7E8BBB47
:1001500003C08BB380618BBB8BB384608BBB8FE997
:100160009FE00197F1F700C000008BB38B7F8BBB42
:10017000EFE9FFE03197F1F700C0000008958AB37E
:100180008C6F8ABB8BB383708BBB83E00E944F0064
:100190008FE79EE30197F1F700C0000083E00E9423
:1001A0004F008FE79EE30197F1F700C0000083E066
:1001B0000E944F008FE79EE30197F1F700C0000017
:1001C00082E00E944F0088E20E944F0088E00E9477
:1001D0004F0081E00E944F0086E00E944F0081E0C6
:1001E0000E944F008CE00E944F009FEF29EF80E0BB
:1001F000915020408040E1F700C0000008959BB37B
:1002000098609BBB882324F09BB39F779BBB03C064
:100210009BB390689BBB86FD04C09BB39F7B9BBB3D
:1002200003C09BB390649BBB85FD04C09BB39F7DC3
:100230009BBB03C09BB390629BBB84FD04C09BB37C
:100240009F7E9BBB03C09BB390619BBB9BB39460A1
:100250009BBBEFE9FFE03197F1F700C000009BB3D3
:100260009B7F9BBBEFE9FFE03197F1F700C00000F7
:1002700083FD04C09BB39F779BBB03C09BB3906877
:100280009BBB82FD04C09BB39F7B9BBB03C09BB306
:1002900090649BBB81FD04C09BB39F7D9BBB03C04F
:1002A0009BB390629BBB80FD04C08BB38F7E8BBBE6
:1002B00003C08BB380618BBB8BB384608BBB8FE936
:1002C0009FE00197F1F700C000008BB38B7F8BBBE1
:1002D000EFE9FFE03197F1F700C000000895CF92F9
:1002E000DF92EF92FF921F93CF93DF93CDB7DEB7EC
:1002F0002A970FB6F894DEBF0FBECDBF6B017C010D
:10030000672B682B692B19F480E30E94FF0010E033
:1003100017C0C701B6012AE030E040E050E00E947B
:10032000D901E1E0F0E0EC0FFD1FE10FF11D17FD39
:10033000FA95605D6083C22ED32EE42EF52E1F5FEA
:10034000C114D104E104F10421F711500CC0E1E023
:10035000F0E0EC0FFD1FE10FF11D17FDFA95808114
:100360000E94FF001150112394F72A960FB6F894BB
:10037000DEBF0FBECDBFDF91CF911F91FF90EF90F9
:10038000DF90CF9008950E94BF008FE00E9436005A
:100390000E943C008130E1F70E944800C82F80E8AD
:1003A0000E944F006C2F70E080E090E00E946F018F
:1003B000EFCFA1E21A2EAA1BBB1BFD010DC0AA1F85
:1003C000BB1FEE1FFF1FA217B307E407F50720F0BE
:1003D000A21BB30BE40BF50B661F771F881F991F39
:1003E0001A9469F760957095809590959B01AC0182
:0A03F000BD01CF010895F894FFCF7E
:00000001FF
