:100000000C942A000C943C000C943C000C943C0092
:100010000C943C000C943C000C943C000C943C0070
:100020000C943C000C943C000C946A000C94460028
:100030000C943C000C943C000C943C000C943C0050
:100040000C943C000C943C000C943C000C943C0040
:100050000C943C0011241FBECFE5D8E0DEBFCDBF1D
:1000600020E0A0E6B0E001C01D92A436B207E1F79F
:100070000E943E000C9493000C94000081B38460B5
:1000800081BB8FEF90E00E948B00FFCF1F920F92F9
:100090000FB60F9211242F938F939F93809162003C
:1000A0009091630001969093630080936200843284
:1000B000944F41F4109263001092620092B384E076
:1000C000892782BB9F918F912F910F900FBE0F9028
:1000D0001F9018951F920F920FB60F9211248F93B5
:1000E0009F938091600090916100019690936100D0
:1000F00080936000CE9741F41092610010926000EE
:1001000092B384E0892782BB9F918F910F900FBE9D
:100110000F901F90189597B3986097BB93B79D6108
:0A01200093BF8CBF0895F894FFCF41
:00000001FF
